S01800004763634170706C69636174696F6E31302E737265632A
S11300000C9434000C9451000C9451000C94510045
S11300100C9451000C9451000C9451000C94510018
S11300200C9451000C9451000C9451000C94510008
S11300300C9451000C9451000C9451000C945100F8
S11300400C9451000C9451000C9453000C945100E6
S11300500C9451000C9451000C9451000C945100D8
S11300600C9451000C94510011241FBECFEFD8E022
S1130070DEBFCDBF11E0A0E0B1E0E4E0F2E002C0F9
S113008005900D92A231B107D9F721E0A2E1B1E0C8
S113009001C01D92A231B207E1F70E94D9000C946D
S11300A000010C9400001F920F9200905F000F92C9
S11300B011242F933F934F935F936F937F938F9369
S11300C09F93AF93BF93EF93FF93CF93DF93CDB7FA
S11300D0DEB786EC90E0FC01808180530E948500AD
S11300E00000DF91CF91FF91EF91BF91AF919F916C
S11300F08F917F916F915F914F913F912F910F90CD
S113010000925F000F901F901895CF93DF93CDB7A7
S1130110DEB763970FB6F894DEBF0FBECDBF8B8BEF
S113012022E1E0E0F1E0CE010196DC0101900D92C4
S11301302A95E1F785E290E02B89222F30E0220F07
S1130140331FAE014F5F5F4F240F351FF90120812C
S11301503181FC0120838B89882F90E0880F991FBF
S11301609E012F5F3F4F820F931FFC01808191817D
S113017088279170892B51F08BE290E02BE230E0DC
S1130180F90120812068FC01208309C08BE290E002
S11301902BE230E0F90120812F77FC01208300005D
S11301A063960FB6F894DEBF0FBECDBFDF91CF913B
S11301B00895CF93DF93CDB7DEB784E290E02FEFBD
S11301C0FC0120838AE290E020E8FC01208385EC96
S11301D090E0FC01108284EC90E02FEFFC0120837E
S11301E081EC90E028E9FC01208382EC90E026E099
S11301F0FC012083789480E090E0DF91CF91089512
S1070200F894FFCF9C
S1130204F0007000300010000F000700030001002C
S10502140001E3
S9030000FC
